{
    "_format": "hh-sol-artifact-1",
    "contractName": "XenniumFaucet",
    "sourceName": "contracts/xeniumFaucet.sol",
    "abi": [
        {
            "inputs": [
                {
                    "internalType": "address",
                    "name": "_tokenAddress",
                    "type": "address"
                },
                {
                    "internalType": "address",
                    "name": "initialOwner",
                    "type": "address"
                }
            ],
            "stateMutability": "nonpayable",
            "type": "constructor"
        },
        {
            "inputs": [
                {
                    "internalType": "address",
                    "name": "owner",
                    "type": "address"
                }
            ],
            "name": "OwnableInvalidOwner",
            "type": "error"
        },
        {
            "inputs": [
                {
                    "internalType": "address",
                    "name": "account",
                    "type": "address"
                }
            ],
            "name": "OwnableUnauthorizedAccount",
            "type": "error"
        },
        {
            "anonymous": false,
            "inputs": [
                {
                    "indexed": true,
                    "internalType": "address",
                    "name": "previousOwner",
                    "type": "address"
                },
                {
                    "indexed": true,
                    "internalType": "address",
                    "name": "newOwner",
                    "type": "address"
                }
            ],
            "name": "OwnershipTransferred",
            "type": "event"
        },
        {
            "inputs": [],
            "name": "claimAmount",
            "outputs": [
                {
                    "internalType": "uint256",
                    "name": "",
                    "type": "uint256"
                }
            ],
            "stateMutability": "view",
            "type": "function"
        },
        {
            "inputs": [],
            "name": "claimTokens",
            "outputs": [],
            "stateMutability": "nonpayable",
            "type": "function"
        },
        {
            "inputs": [
                {
                    "internalType": "address",
                    "name": "",
                    "type": "address"
                }
            ],
            "name": "hasClaimed",
            "outputs": [
                {
                    "internalType": "bool",
                    "name": "",
                    "type": "bool"
                }
            ],
            "stateMutability": "view",
            "type": "function"
        },
        {
            "inputs": [],
            "name": "owner",
            "outputs": [
                {
                    "internalType": "address",
                    "name": "",
                    "type": "address"
                }
            ],
            "stateMutability": "view",
            "type": "function"
        },
        {
            "inputs": [
                {
                    "internalType": "uint256",
                    "name": "amount",
                    "type": "uint256"
                }
            ],
            "name": "refillFaucet",
            "outputs": [],
            "stateMutability": "nonpayable",
            "type": "function"
        },
        {
            "inputs": [],
            "name": "renounceOwnership",
            "outputs": [],
            "stateMutability": "nonpayable",
            "type": "function"
        },
        {
            "inputs": [
                {
                    "internalType": "uint256",
                    "name": "amount",
                    "type": "uint256"
                }
            ],
            "name": "setClaimAmount",
            "outputs": [],
            "stateMutability": "nonpayable",
            "type": "function"
        },
        {
            "inputs": [
                {
                    "internalType": "address",
                    "name": "newOwner",
                    "type": "address"
                }
            ],
            "name": "transferOwnership",
            "outputs": [],
            "stateMutability": "nonpayable",
            "type": "function"
        }
    ],
    "bytecode": "0x6080604052678ac7230489e800006002553480156200001d57600080fd5b5060405162000ddc38038062000ddc833981810160405281019062000043919062000242565b80600073ffffffffffffffffffffffffffffffffffffffff168173ffffffffffffffffffffffffffffffffffffffff1603620000b95760006040517f1e4fbdf7000000000000000000000000000000000000000000000000000000008152600401620000b091906200029a565b60405180910390fd5b620000ca816200011460201b60201c565b5081600160006101000a81548173ffffffffffffffffffffffffffffffffffffffff021916908373ffffffffffffffffffffffffffffffffffffffff1602179055505050620002b7565b60008060009054906101000a900473ffffffffffffffffffffffffffffffffffffffff169050816000806101000a81548173ffffffffffffffffffffffffffffffffffffffff021916908373ffffffffffffffffffffffffffffffffffffffff1602179055508173ffffffffffffffffffffffffffffffffffffffff168173ffffffffffffffffffffffffffffffffffffffff167f8be0079c531659141344cd1fd0a4f28419497f9722a3daafe3b4186f6b6457e060405160405180910390a35050565b600080fd5b600073ffffffffffffffffffffffffffffffffffffffff82169050919050565b60006200020a82620001dd565b9050919050565b6200021c81620001fd565b81146200022857600080fd5b50565b6000815190506200023c8162000211565b92915050565b600080604083850312156200025c576200025b620001d8565b5b60006200026c858286016200022b565b92505060206200027f858286016200022b565b9150509250929050565b6200029481620001fd565b82525050565b6000602082019050620002b1600083018462000289565b92915050565b610b1580620002c76000396000f3fe608060405234801561001057600080fd5b50600436106100885760003560e01c80638da5cb5b1161005b5780638da5cb5b146100ef578063a6e340c61461010d578063b1c7ef0c14610129578063f2fde38b1461014557610088565b806348c54b9d1461008d578063715018a61461009757806373b2e80e146100a1578063830953ab146100d1575b600080fd5b610095610161565b005b61009f61045c565b005b6100bb60048036038101906100b691906107bb565b610470565b6040516100c89190610803565b60405180910390f35b6100d9610490565b6040516100e69190610837565b60405180910390f35b6100f7610496565b6040516101049190610861565b60405180910390f35b610127600480360381019061012291906108a8565b6104bf565b005b610143600480360381019061013e91906108a8565b61056d565b005b61015f600480360381019061015a91906107bb565b61057f565b005b600360003373ffffffffffffffffffffffffffffffffffffffff1673ffffffffffffffffffffffffffffffffffffffff16815260200190815260200160002060009054906101000a900460ff16156101ee576040517f08c379a00000000000000000000000000000000000000000000000000000000081526004016101e590610958565b60405180910390fd5b600254600160009054906101000a900473ffffffffffffffffffffffffffffffffffffffff1673ffffffffffffffffffffffffffffffffffffffff166370a08231306040518263ffffffff1660e01b815260040161024c9190610861565b602060405180830381865afa158015610269573d6000803e3d6000fd5b505050506040513d601f19601f8201168201806040525081019061028d919061098d565b10156102ce576040517f08c379a00000000000000000000000000000000000000000000000000000000081526004016102c590610a06565b60405180910390fd5b6001600360003373ffffffffffffffffffffffffffffffffffffffff1673ffffffffffffffffffffffffffffffffffffffff16815260200190815260200160002060006101000a81548160ff021916908315150217905550600160009054906101000a900473ffffffffffffffffffffffffffffffffffffffff1673ffffffffffffffffffffffffffffffffffffffff1663a9059cbb336002546040518363ffffffff1660e01b8152600401610385929190610a26565b6020604051808303816000875af11580156103a4573d6000803e3d6000fd5b505050506040513d601f19601f820116820180604052508101906103c89190610a7b565b50600160009054906101000a900473ffffffffffffffffffffffffffffffffffffffff1673ffffffffffffffffffffffffffffffffffffffff166388e56b64336002546040518363ffffffff1660e01b8152600401610428929190610a26565b600060405180830381600087803b15801561044257600080fd5b505af1158015610456573d6000803e3d6000fd5b50505050565b610464610605565b61046e600061068c565b565b60036020528060005260406000206000915054906101000a900460ff1681565b60025481565b60008060009054906101000a900473ffffffffffffffffffffffffffffffffffffffff16905090565b6104c7610605565b600160009054906101000a900473ffffffffffffffffffffffffffffffffffffffff1673ffffffffffffffffffffffffffffffffffffffff166323b872dd3330846040518463ffffffff1660e01b815260040161052693929190610aa8565b6020604051808303816000875af1158015610545573d6000803e3d6000fd5b505050506040513d601f19601f820116820180604052508101906105699190610a7b565b5050565b610575610605565b8060028190555050565b610587610605565b600073ffffffffffffffffffffffffffffffffffffffff168173ffffffffffffffffffffffffffffffffffffffff16036105f95760006040517f1e4fbdf70000000000000000000000000000000000000000000000000000000081526004016105f09190610861565b60405180910390fd5b6106028161068c565b50565b61060d610750565b73ffffffffffffffffffffffffffffffffffffffff1661062b610496565b73ffffffffffffffffffffffffffffffffffffffff161461068a5761064e610750565b6040517f118cdaa70000000000000000000000000000000000000000000000000000000081526004016106819190610861565b60405180910390fd5b565b60008060009054906101000a900473ffffffffffffffffffffffffffffffffffffffff169050816000806101000a81548173ffffffffffffffffffffffffffffffffffffffff021916908373ffffffffffffffffffffffffffffffffffffffff1602179055508173ffffffffffffffffffffffffffffffffffffffff168173ffffffffffffffffffffffffffffffffffffffff167f8be0079c531659141344cd1fd0a4f28419497f9722a3daafe3b4186f6b6457e060405160405180910390a35050565b600033905090565b600080fd5b600073ffffffffffffffffffffffffffffffffffffffff82169050919050565b60006107888261075d565b9050919050565b6107988161077d565b81146107a357600080fd5b50565b6000813590506107b58161078f565b92915050565b6000602082840312156107d1576107d0610758565b5b60006107df848285016107a6565b91505092915050565b60008115159050919050565b6107fd816107e8565b82525050565b600060208201905061081860008301846107f4565b92915050565b6000819050919050565b6108318161081e565b82525050565b600060208201905061084c6000830184610828565b92915050565b61085b8161077d565b82525050565b60006020820190506108766000830184610852565b92915050565b6108858161081e565b811461089057600080fd5b50565b6000813590506108a28161087c565b92915050565b6000602082840312156108be576108bd610758565b5b60006108cc84828501610893565b91505092915050565b600082825260208201905092915050565b7f596f75206861766520616c726561647920636c61696d656420796f757220746f60008201527f6b656e732e000000000000000000000000000000000000000000000000000000602082015250565b60006109426025836108d5565b915061094d826108e6565b604082019050919050565b6000602082019050818103600083015261097181610935565b9050919050565b6000815190506109878161087c565b92915050565b6000602082840312156109a3576109a2610758565b5b60006109b184828501610978565b91505092915050565b7f46617563657420656d7074792c20706c6561736520726566696c6c2e00000000600082015250565b60006109f0601c836108d5565b91506109fb826109ba565b602082019050919050565b60006020820190508181036000830152610a1f816109e3565b9050919050565b6000604082019050610a3b6000830185610852565b610a486020830184610828565b9392505050565b610a58816107e8565b8114610a6357600080fd5b50565b600081519050610a7581610a4f565b92915050565b600060208284031215610a9157610a90610758565b5b6000610a9f84828501610a66565b91505092915050565b6000606082019050610abd6000830186610852565b610aca6020830185610852565b610ad76040830184610828565b94935050505056fea264697066735822122061ee7cad42a93e9ab369dd1233162e4031ee452bff33b22890d2cbb009d7c46e64736f6c63430008140033",
    "linkReferences": {},
    "deployedLinkReferences": {}
}