{
    "_format": "hh-sol-artifact-1",
    "contractName": "Xennium",
    "sourceName": "contracts/xennium.sol",
    "abi": [
        {
            "inputs": [
                {
                    "internalType": "address",
                    "name": "owner",
                    "type": "address"
                }
            ],
            "stateMutability": "nonpayable",
            "type": "constructor"
        },
        {
            "inputs": [
                {
                    "internalType": "address",
                    "name": "spender",
                    "type": "address"
                },
                {
                    "internalType": "uint256",
                    "name": "allowance",
                    "type": "uint256"
                },
                {
                    "internalType": "uint256",
                    "name": "needed",
                    "type": "uint256"
                }
            ],
            "name": "ERC20InsufficientAllowance",
            "type": "error"
        },
        {
            "inputs": [
                {
                    "internalType": "address",
                    "name": "sender",
                    "type": "address"
                },
                {
                    "internalType": "uint256",
                    "name": "balance",
                    "type": "uint256"
                },
                {
                    "internalType": "uint256",
                    "name": "needed",
                    "type": "uint256"
                }
            ],
            "name": "ERC20InsufficientBalance",
            "type": "error"
        },
        {
            "inputs": [
                {
                    "internalType": "address",
                    "name": "approver",
                    "type": "address"
                }
            ],
            "name": "ERC20InvalidApprover",
            "type": "error"
        },
        {
            "inputs": [
                {
                    "internalType": "address",
                    "name": "receiver",
                    "type": "address"
                }
            ],
            "name": "ERC20InvalidReceiver",
            "type": "error"
        },
        {
            "inputs": [
                {
                    "internalType": "address",
                    "name": "sender",
                    "type": "address"
                }
            ],
            "name": "ERC20InvalidSender",
            "type": "error"
        },
        {
            "inputs": [
                {
                    "internalType": "address",
                    "name": "spender",
                    "type": "address"
                }
            ],
            "name": "ERC20InvalidSpender",
            "type": "error"
        },
        {
            "inputs": [
                {
                    "internalType": "address",
                    "name": "owner",
                    "type": "address"
                }
            ],
            "name": "OwnableInvalidOwner",
            "type": "error"
        },
        {
            "inputs": [
                {
                    "internalType": "address",
                    "name": "account",
                    "type": "address"
                }
            ],
            "name": "OwnableUnauthorizedAccount",
            "type": "error"
        },
        {
            "anonymous": false,
            "inputs": [
                {
                    "indexed": true,
                    "internalType": "address",
                    "name": "owner",
                    "type": "address"
                },
                {
                    "indexed": true,
                    "internalType": "address",
                    "name": "spender",
                    "type": "address"
                },
                {
                    "indexed": false,
                    "internalType": "uint256",
                    "name": "value",
                    "type": "uint256"
                }
            ],
            "name": "Approval",
            "type": "event"
        },
        {
            "anonymous": false,
            "inputs": [
                {
                    "indexed": true,
                    "internalType": "address",
                    "name": "previousOwner",
                    "type": "address"
                },
                {
                    "indexed": true,
                    "internalType": "address",
                    "name": "newOwner",
                    "type": "address"
                }
            ],
            "name": "OwnershipTransferred",
            "type": "event"
        },
        {
            "anonymous": false,
            "inputs": [
                {
                    "indexed": true,
                    "internalType": "address",
                    "name": "from",
                    "type": "address"
                },
                {
                    "indexed": true,
                    "internalType": "address",
                    "name": "to",
                    "type": "address"
                },
                {
                    "indexed": false,
                    "internalType": "uint256",
                    "name": "value",
                    "type": "uint256"
                }
            ],
            "name": "Transfer",
            "type": "event"
        },
        {
            "inputs": [],
            "name": "DEPRECIATION_THRESHOLD",
            "outputs": [
                {
                    "internalType": "uint256",
                    "name": "",
                    "type": "uint256"
                }
            ],
            "stateMutability": "view",
            "type": "function"
        },
        {
            "inputs": [],
            "name": "INITIAL_COINS",
            "outputs": [
                {
                    "internalType": "uint256",
                    "name": "",
                    "type": "uint256"
                }
            ],
            "stateMutability": "view",
            "type": "function"
        },
        {
            "inputs": [
                {
                    "internalType": "address",
                    "name": "owner",
                    "type": "address"
                },
                {
                    "internalType": "address",
                    "name": "spender",
                    "type": "address"
                }
            ],
            "name": "allowance",
            "outputs": [
                {
                    "internalType": "uint256",
                    "name": "",
                    "type": "uint256"
                }
            ],
            "stateMutability": "view",
            "type": "function"
        },
        {
            "inputs": [
                {
                    "internalType": "address",
                    "name": "spender",
                    "type": "address"
                },
                {
                    "internalType": "uint256",
                    "name": "value",
                    "type": "uint256"
                }
            ],
            "name": "approve",
            "outputs": [
                {
                    "internalType": "bool",
                    "name": "",
                    "type": "bool"
                }
            ],
            "stateMutability": "nonpayable",
            "type": "function"
        },
        {
            "inputs": [
                {
                    "internalType": "address",
                    "name": "account",
                    "type": "address"
                }
            ],
            "name": "balanceOf",
            "outputs": [
                {
                    "internalType": "uint256",
                    "name": "",
                    "type": "uint256"
                }
            ],
            "stateMutability": "view",
            "type": "function"
        },
        {
            "inputs": [
                {
                    "internalType": "address",
                    "name": "account",
                    "type": "address"
                },
                {
                    "internalType": "uint256",
                    "name": "remainingCoins",
                    "type": "uint256"
                }
            ],
            "name": "calculateDepreciation",
            "outputs": [
                {
                    "internalType": "uint256",
                    "name": "",
                    "type": "uint256"
                }
            ],
            "stateMutability": "view",
            "type": "function"
        },
        {
            "inputs": [],
            "name": "decimals",
            "outputs": [
                {
                    "internalType": "uint8",
                    "name": "",
                    "type": "uint8"
                }
            ],
            "stateMutability": "view",
            "type": "function"
        },
        {
            "inputs": [
                {
                    "internalType": "address",
                    "name": "",
                    "type": "address"
                }
            ],
            "name": "lastSpentTime",
            "outputs": [
                {
                    "internalType": "uint256",
                    "name": "",
                    "type": "uint256"
                }
            ],
            "stateMutability": "view",
            "type": "function"
        },
        {
            "inputs": [],
            "name": "name",
            "outputs": [
                {
                    "internalType": "string",
                    "name": "",
                    "type": "string"
                }
            ],
            "stateMutability": "view",
            "type": "function"
        },
        {
            "inputs": [],
            "name": "owner",
            "outputs": [
                {
                    "internalType": "address",
                    "name": "",
                    "type": "address"
                }
            ],
            "stateMutability": "view",
            "type": "function"
        },
        {
            "inputs": [
                {
                    "internalType": "uint256",
                    "name": "amount",
                    "type": "uint256"
                }
            ],
            "name": "receiveCoins",
            "outputs": [],
            "stateMutability": "nonpayable",
            "type": "function"
        },
        {
            "inputs": [],
            "name": "renounceOwnership",
            "outputs": [],
            "stateMutability": "nonpayable",
            "type": "function"
        },
        {
            "inputs": [
                {
                    "internalType": "address",
                    "name": "account",
                    "type": "address"
                },
                {
                    "internalType": "uint256",
                    "name": "amount",
                    "type": "uint256"
                }
            ],
            "name": "resetDepreciation",
            "outputs": [],
            "stateMutability": "nonpayable",
            "type": "function"
        },
        {
            "inputs": [
                {
                    "internalType": "uint256",
                    "name": "amount",
                    "type": "uint256"
                }
            ],
            "name": "spendCoins",
            "outputs": [],
            "stateMutability": "nonpayable",
            "type": "function"
        },
        {
            "inputs": [
                {
                    "internalType": "address",
                    "name": "",
                    "type": "address"
                }
            ],
            "name": "spentCoins",
            "outputs": [
                {
                    "internalType": "uint256",
                    "name": "",
                    "type": "uint256"
                }
            ],
            "stateMutability": "view",
            "type": "function"
        },
        {
            "inputs": [],
            "name": "symbol",
            "outputs": [
                {
                    "internalType": "string",
                    "name": "",
                    "type": "string"
                }
            ],
            "stateMutability": "view",
            "type": "function"
        },
        {
            "inputs": [],
            "name": "totalSupply",
            "outputs": [
                {
                    "internalType": "uint256",
                    "name": "",
                    "type": "uint256"
                }
            ],
            "stateMutability": "view",
            "type": "function"
        },
        {
            "inputs": [
                {
                    "internalType": "address",
                    "name": "to",
                    "type": "address"
                },
                {
                    "internalType": "uint256",
                    "name": "amount",
                    "type": "uint256"
                }
            ],
            "name": "transfer",
            "outputs": [
                {
                    "internalType": "bool",
                    "name": "",
                    "type": "bool"
                }
            ],
            "stateMutability": "nonpayable",
            "type": "function"
        },
        {
            "inputs": [
                {
                    "internalType": "address",
                    "name": "from",
                    "type": "address"
                },
                {
                    "internalType": "address",
                    "name": "to",
                    "type": "address"
                },
                {
                    "internalType": "uint256",
                    "name": "value",
                    "type": "uint256"
                }
            ],
            "name": "transferFrom",
            "outputs": [
                {
                    "internalType": "bool",
                    "name": "",
                    "type": "bool"
                }
            ],
            "stateMutability": "nonpayable",
            "type": "function"
        },
        {
            "inputs": [
                {
                    "internalType": "address",
                    "name": "newOwner",
                    "type": "address"
                }
            ],
            "name": "transferOwnership",
            "outputs": [],
            "stateMutability": "nonpayable",
            "type": "function"
        },
        {
            "inputs": [
                {
                    "internalType": "address",
                    "name": "",
                    "type": "address"
                }
            ],
            "name": "trueValue",
            "outputs": [
                {
                    "internalType": "uint256",
                    "name": "",
                    "type": "uint256"
                }
            ],
            "stateMutability": "view",
            "type": "function"
        }
    ],
    "bytecode": "0x60806040523480156200001157600080fd5b5060405162002607380380620026078339818101604052810190620000379190620005a6565b806040518060400160405280600781526020017f58656e6e69756d000000000000000000000000000000000000000000000000008152506040518060400160405280600481526020017f58454e58000000000000000000000000000000000000000000000000000000008152508160039081620000b5919062000852565b508060049081620000c7919062000852565b505050600073ffffffffffffffffffffffffffffffffffffffff168173ffffffffffffffffffffffffffffffffffffffff16036200013f5760006040517f1e4fbdf70000000000000000000000000000000000000000000000000000000081526004016200013691906200094a565b60405180910390fd5b6200015081620001b960201b60201c565b506200016d8169d3c21bcecceda10000006200027f60201b60201c565b6064600860008373ffffffffffffffffffffffffffffffffffffffff1673ffffffffffffffffffffffffffffffffffffffff168152602001908152602001600020819055505062000a3c565b6000600560009054906101000a900473ffffffffffffffffffffffffffffffffffffffff16905081600560006101000a81548173ffffffffffffffffffffffffffffffffffffffff021916908373ffffffffffffffffffffffffffffffffffffffff1602179055508173ffffffffffffffffffffffffffffffffffffffff168173ffffffffffffffffffffffffffffffffffffffff167f8be0079c531659141344cd1fd0a4f28419497f9722a3daafe3b4186f6b6457e060405160405180910390a35050565b600073ffffffffffffffffffffffffffffffffffffffff168273ffffffffffffffffffffffffffffffffffffffff1603620002f45760006040517fec442f05000000000000000000000000000000000000000000000000000000008152600401620002eb91906200094a565b60405180910390fd5b62000308600083836200030c60201b60201c565b5050565b600073ffffffffffffffffffffffffffffffffffffffff168373ffffffffffffffffffffffffffffffffffffffff16036200036257806002600082825462000355919062000996565b9250508190555062000438565b60008060008573ffffffffffffffffffffffffffffffffffffffff1673ffffffffffffffffffffffffffffffffffffffff16815260200190815260200160002054905081811015620003f1578381836040517fe450d38c000000000000000000000000000000000000000000000000000000008152600401620003e893929190620009e2565b60405180910390fd5b8181036000808673ffffffffffffffffffffffffffffffffffffffff1673ffffffffffffffffffffffffffffffffffffffff16815260200190815260200160002081905550505b600073ffffffffffffffffffffffffffffffffffffffff168273ffffffffffffffffffffffffffffffffffffffff1603620004835780600260008282540392505081905550620004d0565b806000808473ffffffffffffffffffffffffffffffffffffffff1673ffffffffffffffffffffffffffffffffffffffff168152602001908152602001600020600082825401925050819055505b8173ffffffffffffffffffffffffffffffffffffffff168373ffffffffffffffffffffffffffffffffffffffff167fddf252ad1be2c89b69c2b068fc378daa952ba7f163c4a11628f55a4df523b3ef836040516200052f919062000a1f565b60405180910390a3505050565b600080fd5b600073ffffffffffffffffffffffffffffffffffffffff82169050919050565b60006200056e8262000541565b9050919050565b620005808162000561565b81146200058c57600080fd5b50565b600081519050620005a08162000575565b92915050565b600060208284031215620005bf57620005be6200053c565b5b6000620005cf848285016200058f565b91505092915050565b600081519050919050565b7f4e487b7100000000000000000000000000000000000000000000000000000000600052604160045260246000fd5b7f4e487b7100000000000000000000000000000000000000000000000000000000600052602260045260246000fd5b600060028204905060018216806200065a57607f821691505b60208210810362000670576200066f62000612565b5b50919050565b60008190508160005260206000209050919050565b60006020601f8301049050919050565b600082821b905092915050565b600060088302620006da7fffffffffffffffffffffffffffffffffffffffffffffffffffffffffffffffff826200069b565b620006e686836200069b565b95508019841693508086168417925050509392505050565b6000819050919050565b6000819050919050565b6000620007336200072d6200072784620006fe565b62000708565b620006fe565b9050919050565b6000819050919050565b6200074f8362000712565b620007676200075e826200073a565b848454620006a8565b825550505050565b600090565b6200077e6200076f565b6200078b81848462000744565b505050565b5b81811015620007b357620007a760008262000774565b60018101905062000791565b5050565b601f8211156200080257620007cc8162000676565b620007d7846200068b565b81016020851015620007e7578190505b620007ff620007f6856200068b565b83018262000790565b50505b505050565b600082821c905092915050565b6000620008276000198460080262000807565b1980831691505092915050565b600062000842838362000814565b9150826002028217905092915050565b6200085d82620005d8565b67ffffffffffffffff811115620008795762000878620005e3565b5b62000885825462000641565b62000892828285620007b7565b600060209050601f831160018114620008ca5760008415620008b5578287015190505b620008c1858262000834565b86555062000931565b601f198416620008da8662000676565b60005b828110156200090457848901518255600182019150602085019450602081019050620008dd565b8683101562000924578489015162000920601f89168262000814565b8355505b6001600288020188555050505b505050505050565b620009448162000561565b82525050565b600060208201905062000961600083018462000939565b92915050565b7f4e487b7100000000000000000000000000000000000000000000000000000000600052601160045260246000fd5b6000620009a382620006fe565b9150620009b083620006fe565b9250828201905080821115620009cb57620009ca62000967565b5b92915050565b620009dc81620006fe565b82525050565b6000606082019050620009f9600083018662000939565b62000a086020830185620009d1565b62000a176040830184620009d1565b949350505050565b600060208201905062000a366000830184620009d1565b92915050565b611bbb8062000a4c6000396000f3fe608060405234801561001057600080fd5b50600436106101375760003560e01c806388e56b64116100b8578063dd62ed3e1161007c578063dd62ed3e14610340578063e61a0dcf14610370578063ec041047146103a0578063ed6565da146103d0578063ef5338e0146103ec578063f2fde38b1461041c57610137565b806388e56b641461029a57806389cb8204146102b65780638da5cb5b146102d457806395d89b41146102f2578063a9059cbb1461031057610137565b806346f5f922116100ff57806346f5f922146101f6578063631f28fb14610226578063680045371461024457806370a0823114610260578063715018a61461029057610137565b806306fdde031461013c578063095ea7b31461015a57806318160ddd1461018a57806323b872dd146101a8578063313ce567146101d8575b600080fd5b610144610438565b6040516101519190611510565b60405180910390f35b610174600480360381019061016f91906115cb565b6104ca565b6040516101819190611626565b60405180910390f35b6101926104ed565b60405161019f9190611650565b60405180910390f35b6101c260048036038101906101bd919061166b565b6104f7565b6040516101cf9190611626565b60405180910390f35b6101e0610526565b6040516101ed91906116da565b60405180910390f35b610210600480360381019061020b91906116f5565b61052f565b60405161021d9190611650565b60405180910390f35b61022e610547565b60405161023b9190611650565b60405180910390f35b61025e60048036038101906102599190611722565b610555565b005b61027a600480360381019061027591906116f5565b610748565b6040516102879190611650565b60405180910390f35b610298610790565b005b6102b460048036038101906102af91906115cb565b6107a4565b005b6102be61086d565b6040516102cb9190611650565b60405180910390f35b6102dc610879565b6040516102e9919061175e565b60405180910390f35b6102fa6108a3565b6040516103079190611510565b60405180910390f35b61032a600480360381019061032591906115cb565b610935565b6040516103379190611626565b60405180910390f35b61035a60048036038101906103559190611779565b6109a7565b6040516103679190611650565b60405180910390f35b61038a600480360381019061038591906115cb565b610a2e565b6040516103979190611650565b60405180910390f35b6103ba60048036038101906103b591906116f5565b610b5e565b6040516103c79190611650565b60405180910390f35b6103ea60048036038101906103e59190611722565b610b76565b005b610406600480360381019061040191906116f5565b610bd0565b6040516104139190611650565b60405180910390f35b610436600480360381019061043191906116f5565b610be8565b005b606060038054610447906117e8565b80601f0160208091040260200160405190810160405280929190818152602001828054610473906117e8565b80156104c05780601f10610495576101008083540402835291602001916104c0565b820191906000526020600020905b8154815290600101906020018083116104a357829003601f168201915b5050505050905090565b6000806104d5610c6e565b90506104e2818585610c76565b600191505092915050565b6000600254905090565b600080610502610c6e565b905061050f858285610c88565b61051a858585610d1c565b60019150509392505050565b60006012905090565b60086020528060005260406000206000915090505481565b69d3c21bcecceda100000081565b670de0b6b3a764000061056733610748565b116105a7576040517f08c379a000000000000000000000000000000000000000000000000000000000815260040161059e9061188b565b60405180910390fd5b806105b133610748565b10156105f2576040517f08c379a00000000000000000000000000000000000000000000000000000000081526004016105e9906118f7565b60405180910390fd5b6000816105fe33610748565b6106089190611946565b905060006106163383610a2e565b90506064811061065b576040517f08c379a00000000000000000000000000000000000000000000000000000000081526004016106529061188b565b60405180910390fd5b6106653384610e10565b82600660003373ffffffffffffffffffffffffffffffffffffffff1673ffffffffffffffffffffffffffffffffffffffff16815260200190815260200160002060008282546106b4919061197a565b9250508190555042600760003373ffffffffffffffffffffffffffffffffffffffff1673ffffffffffffffffffffffffffffffffffffffff1681526020019081526020016000208190555080600860003373ffffffffffffffffffffffffffffffffffffffff1673ffffffffffffffffffffffffffffffffffffffff16815260200190815260200160002081905550505050565b60008060008373ffffffffffffffffffffffffffffffffffffffff1673ffffffffffffffffffffffffffffffffffffffff168152602001908152602001600020549050919050565b610798610e92565b6107a26000610f19565b565b6000816107b084610748565b6107ba919061197a565b90506000816064600660008773ffffffffffffffffffffffffffffffffffffffff1673ffffffffffffffffffffffffffffffffffffffff1681526020019081526020016000205461080b91906119ae565b6108159190611a1f565b90508060646108249190611946565b600860008673ffffffffffffffffffffffffffffffffffffffff1673ffffffffffffffffffffffffffffffffffffffff1681526020019081526020016000208190555050505050565b670de0b6b3a764000081565b6000600560009054906101000a900473ffffffffffffffffffffffffffffffffffffffff16905090565b6060600480546108b2906117e8565b80601f01602080910402602001604051908101604052809291908181526020018280546108de906117e8565b801561092b5780601f106109005761010080835404028352916020019161092b565b820191906000526020600020905b81548152906001019060200180831161090e57829003601f168201915b5050505050905090565b6000670de0b6b3a76400008261094a33610748565b6109549190611946565b1015610995576040517f08c379a000000000000000000000000000000000000000000000000000000000815260040161098c90611ac2565b60405180910390fd5b61099f8383610fdf565b905092915050565b6000600160008473ffffffffffffffffffffffffffffffffffffffff1673ffffffffffffffffffffffffffffffffffffffff16815260200190815260200160002060008373ffffffffffffffffffffffffffffffffffffffff1673ffffffffffffffffffffffffffffffffffffffff16815260200190815260200160002054905092915050565b6000670de0b6b3a76400008211610a485760649050610b58565b600082600660008673ffffffffffffffffffffffffffffffffffffffff1673ffffffffffffffffffffffffffffffffffffffff16815260200190815260200160002054610a95919061197a565b6064600660008773ffffffffffffffffffffffffffffffffffffffff1673ffffffffffffffffffffffffffffffffffffffff16815260200190815260200160002054610ae191906119ae565b610aeb9190611a1f565b905060008190506000600860008773ffffffffffffffffffffffffffffffffffffffff1673ffffffffffffffffffffffffffffffffffffffff16815260200190815260200160002054905081811015610b45576000610b52565b8181610b519190611946565b5b93505050505b92915050565b60076020528060005260406000206000915090505481565b60008111610bb9576040517f08c379a0000000000000000000000000000000000000000000000000000000008152600401610bb090611b2e565b60405180910390fd5b610bc33382611002565b610bcd33826107a4565b50565b60066020528060005260406000206000915090505481565b610bf0610e92565b600073ffffffffffffffffffffffffffffffffffffffff168173ffffffffffffffffffffffffffffffffffffffff1603610c625760006040517f1e4fbdf7000000000000000000000000000000000000000000000000000000008152600401610c59919061175e565b60405180910390fd5b610c6b81610f19565b50565b600033905090565b610c838383836001611084565b505050565b6000610c9484846109a7565b90507fffffffffffffffffffffffffffffffffffffffffffffffffffffffffffffffff8114610d165781811015610d06578281836040517ffb8f41b2000000000000000000000000000000000000000000000000000000008152600401610cfd93929190611b4e565b60405180910390fd5b610d1584848484036000611084565b5b50505050565b600073ffffffffffffffffffffffffffffffffffffffff168373ffffffffffffffffffffffffffffffffffffffff1603610d8e5760006040517f96c6fd1e000000000000000000000000000000000000000000000000000000008152600401610d85919061175e565b60405180910390fd5b600073ffffffffffffffffffffffffffffffffffffffff168273ffffffffffffffffffffffffffffffffffffffff1603610e005760006040517fec442f05000000000000000000000000000000000000000000000000000000008152600401610df7919061175e565b60405180910390fd5b610e0b83838361125b565b505050565b600073ffffffffffffffffffffffffffffffffffffffff168273ffffffffffffffffffffffffffffffffffffffff1603610e825760006040517f96c6fd1e000000000000000000000000000000000000000000000000000000008152600401610e79919061175e565b60405180910390fd5b610e8e8260008361125b565b5050565b610e9a610c6e565b73ffffffffffffffffffffffffffffffffffffffff16610eb8610879565b73ffffffffffffffffffffffffffffffffffffffff1614610f1757610edb610c6e565b6040517f118cdaa7000000000000000000000000000000000000000000000000000000008152600401610f0e919061175e565b60405180910390fd5b565b6000600560009054906101000a900473ffffffffffffffffffffffffffffffffffffffff16905081600560006101000a81548173ffffffffffffffffffffffffffffffffffffffff021916908373ffffffffffffffffffffffffffffffffffffffff1602179055508173ffffffffffffffffffffffffffffffffffffffff168173ffffffffffffffffffffffffffffffffffffffff167f8be0079c531659141344cd1fd0a4f28419497f9722a3daafe3b4186f6b6457e060405160405180910390a35050565b600080610fea610c6e565b9050610ff7818585610d1c565b600191505092915050565b600073ffffffffffffffffffffffffffffffffffffffff168273ffffffffffffffffffffffffffffffffffffffff16036110745760006040517fec442f0500000000000000000000000000000000000000000000000000000000815260040161106b919061175e565b60405180910390fd5b6110806000838361125b565b5050565b600073ffffffffffffffffffffffffffffffffffffffff168473ffffffffffffffffffffffffffffffffffffffff16036110f65760006040517fe602df050000000000000000000000000000000000000000000000000000000081526004016110ed919061175e565b60405180910390fd5b600073ffffffffffffffffffffffffffffffffffffffff168373ffffffffffffffffffffffffffffffffffffffff16036111685760006040517f94280d6200000000000000000000000000000000000000000000000000000000815260040161115f919061175e565b60405180910390fd5b81600160008673ffffffffffffffffffffffffffffffffffffffff1673ffffffffffffffffffffffffffffffffffffffff16815260200190815260200160002060008573ffffffffffffffffffffffffffffffffffffffff1673ffffffffffffffffffffffffffffffffffffffff168152602001908152602001600020819055508015611255578273ffffffffffffffffffffffffffffffffffffffff168473ffffffffffffffffffffffffffffffffffffffff167f8c5be1e5ebec7d5bd14f71427d1e84f3dd0314c0f7b2291e5b200ac8c7c3b9258460405161124c9190611650565b60405180910390a35b50505050565b600073ffffffffffffffffffffffffffffffffffffffff168373ffffffffffffffffffffffffffffffffffffffff16036112ad5780600260008282546112a1919061197a565b92505081905550611380565b60008060008573ffffffffffffffffffffffffffffffffffffffff1673ffffffffffffffffffffffffffffffffffffffff16815260200190815260200160002054905081811015611339578381836040517fe450d38c00000000000000000000000000000000000000000000000000000000815260040161133093929190611b4e565b60405180910390fd5b8181036000808673ffffffffffffffffffffffffffffffffffffffff1673ffffffffffffffffffffffffffffffffffffffff16815260200190815260200160002081905550505b600073ffffffffffffffffffffffffffffffffffffffff168273ffffffffffffffffffffffffffffffffffffffff16036113c95780600260008282540392505081905550611416565b806000808473ffffffffffffffffffffffffffffffffffffffff1673ffffffffffffffffffffffffffffffffffffffff168152602001908152602001600020600082825401925050819055505b8173ffffffffffffffffffffffffffffffffffffffff168373ffffffffffffffffffffffffffffffffffffffff167fddf252ad1be2c89b69c2b068fc378daa952ba7f163c4a11628f55a4df523b3ef836040516114739190611650565b60405180910390a3505050565b600081519050919050565b600082825260208201905092915050565b60005b838110156114ba57808201518184015260208101905061149f565b60008484015250505050565b6000601f19601f8301169050919050565b60006114e282611480565b6114ec818561148b565b93506114fc81856020860161149c565b611505816114c6565b840191505092915050565b6000602082019050818103600083015261152a81846114d7565b905092915050565b600080fd5b600073ffffffffffffffffffffffffffffffffffffffff82169050919050565b600061156282611537565b9050919050565b61157281611557565b811461157d57600080fd5b50565b60008135905061158f81611569565b92915050565b6000819050919050565b6115a881611595565b81146115b357600080fd5b50565b6000813590506115c58161159f565b92915050565b600080604083850312156115e2576115e1611532565b5b60006115f085828601611580565b9250506020611601858286016115b6565b9150509250929050565b60008115159050919050565b6116208161160b565b82525050565b600060208201905061163b6000830184611617565b92915050565b61164a81611595565b82525050565b60006020820190506116656000830184611641565b92915050565b60008060006060848603121561168457611683611532565b5b600061169286828701611580565b93505060206116a386828701611580565b92505060406116b4868287016115b6565b9150509250925092565b600060ff82169050919050565b6116d4816116be565b82525050565b60006020820190506116ef60008301846116cb565b92915050565b60006020828403121561170b5761170a611532565b5b600061171984828501611580565b91505092915050565b60006020828403121561173857611737611532565b5b6000611746848285016115b6565b91505092915050565b61175881611557565b82525050565b6000602082019050611773600083018461174f565b92915050565b600080604083850312156117905761178f611532565b5b600061179e85828601611580565b92505060206117af85828601611580565b9150509250929050565b7f4e487b7100000000000000000000000000000000000000000000000000000000600052602260045260246000fd5b6000600282049050600182168061180057607f821691505b602082108103611813576118126117b9565b5b50919050565b7f43616e6e6f74207370656e6420746865206c6173742058656e6e69756d20636f60008201527f696e000000000000000000000000000000000000000000000000000000000000602082015250565b600061187560228361148b565b915061188082611819565b604082019050919050565b600060208201905081810360008301526118a481611868565b9050919050565b7f4e6f7420656e6f75676820636f696e7300000000000000000000000000000000600082015250565b60006118e160108361148b565b91506118ec826118ab565b602082019050919050565b60006020820190508181036000830152611910816118d4565b9050919050565b7f4e487b7100000000000000000000000000000000000000000000000000000000600052601160045260246000fd5b600061195182611595565b915061195c83611595565b925082820390508181111561197457611973611917565b5b92915050565b600061198582611595565b915061199083611595565b92508282019050808211156119a8576119a7611917565b5b92915050565b60006119b982611595565b91506119c483611595565b92508282026119d281611595565b915082820484148315176119e9576119e8611917565b5b5092915050565b7f4e487b7100000000000000000000000000000000000000000000000000000000600052601260045260246000fd5b6000611a2a82611595565b9150611a3583611595565b925082611a4557611a446119f0565b5b828204905092915050565b7f43616e6e6f74207472616e73666572206c6173742058656e6e69756d20636f6960008201527f6e00000000000000000000000000000000000000000000000000000000000000602082015250565b6000611aac60218361148b565b9150611ab782611a50565b604082019050919050565b60006020820190508181036000830152611adb81611a9f565b9050919050565b7f416d6f756e74206d7573742062652067726561746572207468616e207a65726f600082015250565b6000611b1860208361148b565b9150611b2382611ae2565b602082019050919050565b60006020820190508181036000830152611b4781611b0b565b9050919050565b6000606082019050611b63600083018661174f565b611b706020830185611641565b611b7d6040830184611641565b94935050505056fea2646970667358221220e6a9ca923db7c09b4a6e5f82f18d8b440f38e3ecb4d4f9c74acb9801d17aa80464736f6c63430008140033",
    "linkReferences": {},
    "deployedLinkReferences": {}
}